:100000000C9465020C9482020C9482020C94BD2024
:100010000C9482020C9482020C9482020C94820250
:100020000C9482020C9482020C9467270C94392859
:100030000C94B9220C9482020C9482020C948202D9
:100040000C9482020C9482020C9482020C94820220
:100050000C9482020C945D230C9482020C94820214
:100060000C9482020C9482020C9482020C94820200
:100070000C9482020C9482020C9482020C948202F0
:100080000C9482020C9482020C9482020C948202E0
:100090000C9482020C9482020C9482020C948202D0
:1000A0000C9482020C9482020C9482020E050E05BE
:1000B0003A053A05AF06AF06AF06AF06A2053B0606
:1000C0004C064C06A628CD28C529CD28C5291929B6
:1000D0003C29C5299329A22935001E001F002000B4
:1000E00021002200000000002B0014001A0008006C
:1000F0001500170000000000E000040016000700D3
:1001000009000A0000000000E1001D001B000600BD
:1001100019000500000000002900E200E300910042
:100120002C00000000000000230024002500260011
:1001300027002D002E002A001C0018000C001200C1
:1001400013002F00300031000B000D000E000F00D7
:100150003300340000002800110010003600370082
:100160003800E500520001512A0090000000E40030
:100170000000500051004F0029003A003B003C00B5
:100180003D003E0000000000C35CC45CC65CC85C6F
:10019000CA5CCC5C00000000C15CC55CC75CC95C8B
:1001A000CB5CCD5C00000000C25CC05C00000000C5
:1001B000000000000000000000000100010001003C
:1001C00000000000000000003F004000410042002D
:1001D0004300440045004C00CE5CCF5CD05CD15C59
:1001E000D25C00000000A600D35CD45CD55CD65C79
:1001F00000000000000000000000000000000000FF
:10020000000001004B0001000000000000000000A1
:1002100000004A004E004D0000047F3F1F6432146E
:10022000643214783C1E1E140A0522232526282930
:100230002A2C2D2F3032333536383A3B3D3E404262
:10024000434547494A4C4E5051535557595A5C5EA5
:100250006062646668696B6D6F71737577797B7DB9
:100260007F81838587898A8C8E90929496989A9CB8
:100270009E9FA1A3A5A7A8AAACAEAFB1B3B4B6B8D0
:10028000B9BBBCBEBFC1C2C3C5C6C7C9CACBCCCD32
:10029000CED0D1D2D2D3D4D5D6D7D7D8D9D9DADA0D
:1002A000DBDBDBDCDCDCDCDCDDDDDDDDDCDCDCDC8D
:1002B000DCDBDBDBDADAD9D9D8D7D7D6D5D4D3D2C1
:1002C000D2D1D0CECDCCCBCAC9C7C6C5C3C2C1BF9F
:1002D000BEBCBBB9B8B6B4B3B1AFAEACAAA8A7A503
:1002E000A3A19F9E9C9A98969492908E8C8A8987BF
:1002F0008583817F7D7B79777573716F6D6B69689D
:10030000666462605E5C5A5957555351504E4C4A70
:100310004947454342403E3D3B3A3836353332301B
:100320002F2D2C2A292826252322FFAA7F5540007D
:1003300001010101010101010102020202020202A6
:100340000202030303030303030304040404040479
:10035000040505050505060606060607070707073F
:1003600008080808090909090A0A0A0B0B0B0C0CF2
:100370000C0D0D0D0E0E0E0F0F0F1010111111128E
:100380001213131414151516161717181819191A0D
:100390001A1B1B1C1D1D1E1E1F2020212222232470
:1003A00024252626272829292A2B2C2D2D2E2F30AF
:1003B000313232333435363738393A3B3C3D3E3FC3
:1003C000404142434445464748494A4C4D4E4F50B0
:1003D000515354555658595A5B5D5E5F616264656E
:1003E0006668696B6C6D6F7072737577787A7B7DF8
:1003F0007E8082838587888A8C8E8F91939596984C
:100400009A9C9EA0A2A3A5A7A9ABADAFB1B3B5B767
:10041000BABCBEC0C2C4C6C9CBCDCFD1D4D6D8DB3E
:10042000DDDFE2E4E7E9EBEEF0F3F5F8FAFDFF0ECD
:10043000034D0069006E00740036003000000010AB
:100440000345007500630061006C0079006E0000D8
:10045000000403090409022200010100A0FA0904B2
:1004600000000103010100092111010001224000E7
:10047000070581030800011201000200000008EDD9
:10048000FE000001000102000105010906A10105AD
:100490000719E029E71500250195087501810295E6
:1004A00001750881010507190029FF150026FF00C5
:1004B000950675088100050819012905950575013E
:1004C0009102950175039101C00011241FBECFEF69
:1004D000DAE0DEBFCDBF11E0A0E0B1E0E2EFF5E58C
:1004E00002C005900D92AA37B107D9F722E0AAE71A
:1004F000B1E001C01D92A73BB207E1F70E949D1534
:100500000C94F72A0C94000081E0089581E008958E
:100510000C94860208950C948A021F93CF93DF9364
:1005200000D000D01F92CDB7DEB749835A836B83CA
:1005300030917D0189819A81311114C0662359F06F
:10054000222349F00E94E008182F682F89819A81A0
:100550000E94890803C00E94B408182F69817A811B
:10056000812F04C00E94E00869817A810F900F906A
:100570000F900F900F90DF91CF911F910C94DB0F94
:10058000FC01262F408151816281738184810C940A
:100590008D0281E00895CF93DF93EC0160E00E942B
:1005A000C002BE01DF91CF910C948B020C945311C9
:1005B0000C944F1108950E9433070E94DA022FEF26
:1005C00084E39CE0215080409040E1F700C00000AF
:1005D0000C9483230F931F93CF93DF938C0161E0DF
:1005E0000E94C002EC01B8010E948802882309F42D
:1005F00044C0B801CE010E94C81F8823F1F1B801A0
:10060000CE010E94DC1D8823C1F1B801CE010E94F9
:10061000241F882391F1B801CE010E94CA1C8823AF
:1006200061F1F8018281882309F1CB358DE5D80786
:10063000C1F050F4C115FCE5DF0781F0CF3DDC458A
:10064000A9F40E94110E19C0CC35EDE5DE0761F06A
:10065000CD35DD4559F40E945A0D08C00E94DB02D9
:100660000CC00E94630D02C00E94660DC801DF919C
:10067000CF911F910F910C94840280E0DF91CF9174
:100680001F910F9108950E949C220C945C030E947C
:100690005F030C94A22208950C944B0381E008950B
:1006A0000C944E030895CF93C82F0E944C038C2FB7
:1006B0000E945003CF91089580E00C9453030E9450
:1006C000E8210C9453030E94E82190917C01891742
:1006D00021F080937C010C9453030895CF93DF9312
:1006E000CDB7DEB72B970FB6F894DEBF0FBECDBFE8
:1006F0004F83588769877A878B8761110E94A60C80
:100700009E012F5F3F4F86E0F90111928A95E9F72C
:1007100085E0FE013796D90101900D928A95E1F7A7
:1007200089819A814C815D81452B31F09F3F31F465
:1007300091E08F3F19F403C091E001C090E090FF79
:1007400009C049815A816B817C818D819E810E9483
:10075000C70B05C0C9010E94C9028111F2CF2B96B7
:100760000FB6F894DEBF0FBECDBFDF91CF910895D5
:10077000FC01808191810E9422090895CF938823F2
:1007800009F482C0C82F8238C1F40E94E82181FD9B
:100790007BC069E380910201909103010E94742261
:1007A0000E94C80C2FEF81EE94E0215080409040D1
:1007B000E1F700C0000069E319C08338F1F40E943A
:1007C000E82180FD61C063E5809102019091030101
:1007D0000E9474220E94C80C2FEF81EE94E02150F9
:1007E00080409040E1F700C0000063E58091020185
:1007F000909103010E94762244C08438C1F40E9483
:10080000E82182FD41C067E48091020190910301DB
:100810000E9474220E94C80C2FEF81EE94E02150B8
:1008200080409040E1F700C0000067E4DFCF8CEF2C
:100830008C0F813AD0F46C2F8091020190910301CA
:100840000E943E22882349F06C2F809102019091F2
:1008500003010E9476220E94C80C6C2F8091020135
:10086000909103010E9474220CC080E28C0F8830AA
:1008700058F4C77081E001C0880FCA95EAF70E945A
:10088000890CCF910C94C80CCF910895882309F45A
:100890005BC0682F823879F40E94E82181FF54C040
:1008A00069E380910201909103010E9474220E94E9
:1008B000C80C69E310C08338B1F40E94E82180FFBE
:1008C00043C063E580910201909103010E9474226C
:1008D0000E94C80C63E580910201909103010E947F
:1008E00076220C94C80C843879F40E94E82182FFA7
:1008F0002BC067E480910201909103010E94742251
:100900000E94C80C67E4E7CF8CEF860F813A18F39A
:1009100080E2860F883048F4677081E001C0880F5C
:100920006A95EAF70E948F0CDCCF8BE5860F833047
:1009300020F480E090E00C940622685A673120F49D
:1009400080E090E00C941C2208951F93CF93DF93D6
:10095000182FEB010E94BE03209741F08FE99FE022
:100960000197F1F700C000002197F6CF812FDF91AA
:10097000CF911F910C944604893319F060E070E028
:1009800002C060E570E00C94A504882321F00E9469
:10099000890C0C94C80C0895882321F00E948F0CB8
:1009A0000C94C80C0895CF92DF92EF92FF920F93B0
:1009B0001F93CF93DF937C01D62FC72FFC011281A9
:1009C000058102950F700E947F0C8823B9F01123D6
:1009D000A9F08C2F807F803421F080E28D0F883049
:1009E00068F08091720282FD09C082E00E94280DA9
:1009F0000E947F0C91E0D82ED92601C0D12CCC2E9C
:100A0000C2948FE0C8228C2D90E08C30910508F0C4
:100A1000A6C1FC01EA5AFF4F0C94552A8C2F807F07
:100A2000CF70882311F0C295C07F112399F0CC2399
:100A300009F481C180E28D0F883010F0D11104C01B
:100A40008C2F0E94890C03C08C2F0E94990C0E944D
:100A5000C80C71C18D2F0E944604CC2309F47FC1BC
:100A600080E28D0F883038F1DD2329F18C2F0E9430
:100A70009F0C24C08C2F807FCF70803211F0C295E4
:100A8000C07FDD2319F0D130A1F13DC08091720209
:100A900082FF17C0112349F0CC2329F08C2F0E942C
:100AA000890C0E94C80C80E047C180E00E94460487
:100AB000CC2309F454C18C2F0E948F0C0E94C80CC7
:100AC0004EC1112371F0002341F0013031F40E9436
:100AD000A90C8C2B0E94B10C42C10E94A90C8C2B3A
:100AE0001DC0002319F0013009F439C10E94BE0C69
:100AF00025C0112321F0063008F031C10EC00530A9
:100B000008F02DC11BC0112361F0002331F0F70163
:100B1000858180FF10C18F7085838C2F0E94C50452
:100B20001EC1002359F0D93309F016C1FFEF07EEBB
:100B300013E0F15000401040E1F70CC18C2F0E94EF
:100B4000CC040DC18C2F837009F047C011110BC16B
:100B50002D2F229526952770220F220F6D2F6F7053
:100B6000862F90E0A0E0B0E0022E04C0880F991F0D
:100B7000AA1FBB1F0A94D2F7D4FF10C04FE050E069
:100B800060E070E004C0440F551F661F771F2A9570
:100B9000D2F7409550956095709503C040E050E0C5
:100BA000BA01C695C695C3708A019B01082B192B03
:100BB0002A2B3B2BC901B801C23049F058F4C1308F
:100BC00019F00E949F07CFC00E948D07CCC00E94E1
:100BD000B107C9C00E948B07C6C0112319F08C2F22
:100BE000817001C08695882309F4BDC02D2F229500
:100BF00026952770220F220F6D2F6F70862F90E0A1
:100C0000A0E0B0E0022E04C0880F991FAA1FBB1FEE
:100C10000A94D2F7D4FF10C04FE050E060E070E0DB
:100C200004C0440F551F661F771F2A95D2F74095C1
:100C300050956095709503C040E050E0BA01C695AC
:100C4000C695C3708A019B01082B192B2A2B3B2BBD
:100C5000C901B801C23049F058F4C13019F00E94FE
:100C6000640881C00E9452087EC00E9476087BC042
:100C70000E94C50778C0CF70112339F08C2F0E94D5
:100C8000EB078D2F0E94C5046EC08D2F0E94CC04EF
:100C90008C2F0E940C0867C0D23F21F128F4D03F6E
:100CA00041F0D13FC1F043C0D33F19F1D43F79F0B7
:100CB0003EC0112341F0053008F051C08C2F8F71D8
:100CC0000E9431084CC0063008F049C0F7CF80912F
:100CD000720282FF18C0112339F08C2F8F710E948D
:100CE000EB073DC01123C9F38C2F8F710E940C08B4
:100CF00036C0112329F08C2F8F710E94D6072FC088
:100D00000E94D1072CC0112349F0CF718C2F0E9473
:100D1000EB0763E08C2F0E940D0D21C081E00E9443
:100D2000280D0230E0F082E00E94280D18C0112347
:100D300031F0002391F28D2F0E94BE0310C00023DA
:100D400099F2D93349F41FEF27EE33E011502040D8
:100D50003040E1F700C000008D2F0E94460488EF6C
:100D60008C0D843020F40E94E8210E945303DD2082
:100D7000C9F00E947B0C80FD15C0F70112820E9411
:100D8000750C0E94EB07C7010E94F3060E94750CC8
:100D9000DF91CF911F910F91FF90EF90DF90CF9057
:100DA0000C940C08DF91CF911F910F91FF90EF9061
:100DB000DF90CF9008950F931F93CF93DF93EC01B3
:100DC000688179818A810E942D098C010E9488089E
:100DD0000E947907B801CE010E94D304DF91CF9120
:100DE0001F910F910895CF93DF93EC019881898132
:100DF0002B813C81232B31F08F3F31F481E09F3FE9
:100E000019F403C081E001C080E080FD1DC0CE0167
:100E10000E94EA02811110C00E947F0C8823A1F079
:100E20008A81882389F08091720282FD0DC082E060
:100E3000DF91CF910C94280DCE010E94DB06CE01EC
:100E4000DF91CF910C94CB02DF91CF9108950E9456
:100E5000A60C0C94C80C80910201909103010E9491
:100E600078220C9427070E94960C0C942B079295DD
:100E70009F70963079F010F4925001C09A509230E1
:100E800068F4803F69F018F4883E40F409C0843F5C
:100E900029F406C0883E20F0813F11F080E00895DB
:100EA00081E00895FC01808191810E9422090E94C5
:100EB00037070895CF93DF9300D000D01F92CDB7AE
:100EC000DEB70F900F900F900F900F90DF91CF91A2
:100ED0000895CF93DF9300D000D000D0CDB7DEB718
:100EE00026960FB6F894DEBF0FBECDBFDF91CF912F
:100EF0000895089508950C947A070C947B070E9436
:100F00007D076093B4017093B5018093B60190930F
:100F1000B7010C9427070C947F070F931F93009140
:100F2000B4011091B5012091B6013091B701602B49
:100F3000712B822B932B1F910F910C947F070F9392
:100F40001F930091B4011091B5012091B601309129
:100F5000B70160237123822393231F910F910C9477
:100F60007F070F931F930091B4011091B501209159
:100F7000B6013091B70160277127822793271F910F
:100F80000F910C947F070C947A070E94C30760931B
:100F9000B0017093B1018093B2019093B3010C94AE
:100FA000270760E070E0CB010C94C5070F931F93F7
:100FB00041E050E060E070E08A019B0104C0000F56
:100FC000111F221F331F8A95D2F7C901B8011F9143
:100FD0000F910C94C5070F931F9341E050E060E020
:100FE00070E004C0440F551F661F771F8A95D2F723
:100FF0008091B0019091B101A091B201B091B30183
:101000008A019B01082B192B2A2B3B2BC901B80104
:101010001F910F910C94C5070F931F9341E050E06F
:1010200060E070E004C0440F551F661F771F8A956B
:10103000D2F740955095609570958091B001909150
:10104000B101A091B201B091B3018A019B010823C3
:1010500019232A233B23C901B8011F910F910C9436
:10106000C5070F931F9341E050E060E070E004C0BB
:10107000440F551F661F771F8A95D2F78091B001E4
:101080009091B101A091B201B091B3018A019B018D
:10109000082719272A273B27C901B8011F910F915B
:1010A0000C94C5070F931F930091B0011091B101EB
:1010B0002091B2013091B301602B712B822B932BC5
:1010C0001F910F910C94C5070F931F930091B001CE
:1010D0001091B1012091B2013091B30160237123CD
:1010E000822393231F910F910C94C5070F931F9395
:1010F0000091B0011091B1012091B2013091B30182
:1011000060277127822793271F910F910C94C507A1
:10111000089528E0929F800D1124E82FE695E6952A
:10112000E695877051E001C0550F8A95EAF785E092
:10113000E89FF0011124E258FE4F20E030E070E01B
:101140004081CB01022E02C0969587950A94E2F762
:101150008170819584278523842781932F5F3F4F5A
:101160002530310569F7089528E0929F800D1124FC
:10117000682F669566956695982F977085E0689FAD
:10118000B001112440E050E080E0FB01E40FF51FC6
:10119000E258FE4F208130E0092E02C03695279597
:1011A0000A94E2F721703327042E01C0220F0A941B
:1011B000EAF7822B4F5F5F4F4530510531F70895B5
:1011C000BF92CF92DF92EF92FF920F931F93CF9334
:1011D000DF938C01C090B001D090B101E090B201DA
:1011E000F090B3018091B4019091B501A091B60146
:1011F000B091B701C82AD92AEA2AFB2ACFE1D0E068
:10120000D701C6010C2E04C0B695A7959795879572
:101210000A94D2F780FD04C0219790F7B12C07C043
:10122000BC2EB8018C2F0E94F00F0197A9F38B2DD3
:10123000DF91CF911F910F91FF90EF90DF90CF90B2
:10124000BF900895CF93DF93EC010E94E008BE01A8
:101250000E94F00FDF91CF9108951F93CF93DF93FA
:10126000EB0190917D01992321F0CB010E9422098D
:1012700013C0882349F0CB010E94E008182F682F83
:10128000CE010E94890804C0CB010E94B408182F27
:10129000BE01812F0E94F00FDF91CF911F91089521
:1012A0001F93CF93DF93C091B80116E08091B901ED
:1012B000C81799F0D0E01C9FF0011D9FF00D11247C
:1012C000E654FE4F40815181628173818481958112
:1012D0000E9469072196C770E9CFDF91CF911F91D6
:1012E00008954091EA015091EB016091EC017091F9
:1012F000ED018091EE019091EF010C946907EF925E
:10130000FF920F931F93CF93DF938091EF0182950C
:101310008F7009F065C08091EC01882309F460C0EA
:101320008091B801F090B9011091EA010091EB01B0
:101330006091ED017091EE0191E01F3F09F090E0A6
:10134000C0910001D0910101292F96E0E92E8F155F
:1013500009F446C06115710521F00F3F21F030E01E
:1013600003C031E001C0322F90E030FD36C0E89E6E
:10137000F001E99EF00D1124DF01A654BE4F119635
:101380003C911197301329C03C91311326C012961D
:101390003C911297311121C013964D915C91149795
:1013A000461B570B4C175D07C0F48091EF018F70FF
:1013B00080618093EF01E154FE4F80818F708061E6
:1013C00080838AEE91E00E94F306DF91CF911F9116
:1013D0000F91FF90EF900C94500901968770B7CF52
:1013E000DF91CF911F910F91FF90EF9008959F9201
:1013F000AF92BF92CF92DF92EF92FF920F931F9323
:10140000CF93DF93CDB7DEB761970FB6F894DEBF09
:101410000FBECDBF8C0185E0F801DE011D96019065
:101420000D928A95E1F7D8011296EC909091EA011D
:10143000E091EB012091ED013091EE012115310594
:1014400031F0EF3F31F481E09F3F19F403C081E0B8
:1014500001C080E0B82FB1709B2E80FD47C1D8013C
:101460004C9111965C9111971396AD90BC90149786
:101470008AEEC82E81E0D82EF090EC01B501621BF7
:10148000730B2091000130910101FF2009F4D9C0B4
:101490008091EF016217730708F095C0282F207F15
:1014A00009F052C05E1313C0491311C0FE2CE110A5
:1014B0000EC08F7080618093EF010E947109C60198
:1014C0000E94F3068091EF01F80185834DC1AB289E
:1014D00031F05F3F31F481E04F3F19F403C081E008
:1014E00001C080E080FD03C081E08E2502C080E065
:1014F00090E0F82FF170FF2E80FF1CC08091B801A2
:101500002091B90136E0821709F40BC190E0389FB1
:10151000F001399FF00D1124E654FE4F61815613FE
:1015200006C06081461303C06281E61203C00196C3
:101530008770E9CFFE2CEE2009F416C18091EF01EF
:1015400081608093EF0154C05E1306C0491304C04C
:10155000E11002C0F80199C0C8010E945207882317
:1015600061F1EE2051F12091EF01822F82958F7071
:1015700090E0029774F08091EA019091EB019887D6
:101580008F831986BB86AA862C87CE0107960E9478
:10159000F30686E0F801AAEEB1E001900D928A957B
:1015A000E1F70E947F090E9471090AC05E1711F1DC
:1015B000C8010E94520781112CC0C8010E94F30685
:1015C000FF24F394D1C0282F207F81F77A2DB98A88
:1015D000A88A6E2D89890E945A078AEE91E00E949E
:1015E000F30686E0D6011D928A95E9F70E947109FB
:1015F000F12CBAC04913DCCFE110DACFF8018583B2
:10160000C8010E94F30686E0D6011D928A95E9F78B
:10161000ABC0EE2091F22091EF01822F82958F7066
:1016200090E002970CF4B5CF8091EA019091EB0124
:101630009A8389831B82BD82AC822E83CE01019660
:10164000A6CF6217730708F044C0FE2CEE2009F401
:10165000B4CF5E1330C049132EC02091EF0120FD9E
:1016600021C0822F82958F70482F50E0411551057F
:10167000C9F0F80125834F30510541F08F5F982F55
:101680009295907F822F8F70892B8583C8010E944D
:10169000F30686E0F801AAEEB1E001900D928A957A
:1016A000E1F73CC086E0F801AAEEB1E001900D92AE
:1016B0008A95E1F759C0C8010E945207811169CF8C
:1016C0008091EF0181608093EF01C8010E94F306D1
:1016D0004BC07A2DB98AA88A6E2D89890E945A0733
:1016E00086E0D6011D928A95E9F718C0EE2009F42C
:1016F00064CFC8010E945207F82E882309F45DCFF9
:1017000086E0F801AAEEB1E001900D928A95E1F72A
:101710008AEE91E00E94B8030E947F090E9471093D
:1017200023C04D875E878D859E850E942209292FC3
:1017300022952F70223028F49F7039F0811105C056
:101740000BC0243028F49F7049F4805E883020F06C
:10175000C8010E94F3069F2CF92C06C0D8011596EB
:101760009C91907F91F7F8CF8F2D61960FB6F894EA
:10177000DEBF0FBECDBFDF91CF911F910F91FF90C4
:10178000EF90DF90CF90BF90AF909F9008951F9300
:10179000CF93DF93CDB7DEB72C970FB6F894DEBFAB
:1017A0000FBECDBF4F83588769877A878B879C8709
:1017B000CE0107960E94F7098823D1F09F81888582
:1017C0002A853B85232B31F08F3F31F481E09F3F09
:1017D00019F403C081E001C080E080FD47C04F8163
:1017E000588569857A858B859C850E9469073EC0EE
:1017F00086E0FE013796DE01119601900D928A95E2
:10180000E1F7FF81E8856A857B856115710531F017
:10181000EF3F31F481E0FF3F19F403C081E001C0E4
:1018200080E080FD23C02091B90130E0C90101961C
:10183000877099274091B80150E084179507F1F11E
:10184000F983EA837D836C8396E0929FD001939F16
:10185000B00D1124A654BE4FFE01319601900D9299
:101860009A95E1F78093B9010E94500916E08091A2
:10187000B8019091B901891771F1189FC001112425
:1018800086549E4F0E94F709882329F1E091B80100
:101890001E9FF0011124E654FE4F40815181628168
:1018A0007381848195810E9469078091B80190E0DD
:1018B0000196877099278093B801D9CF0E9433078A
:1018C0001092B9011092B801EAEEF1E086E0DF0172
:1018D0001D928A95E9F72C960FB6F894DEBF0FBEDD
:1018E000CDBFDF91CF911F9108958091F80185952B
:1018F0008595859508958091F80187700895909158
:10190000F801977081E009F480E008958091030266
:10191000089590910302892B809303020895809586
:101920009091030289238093030208951092030289
:10193000089590910202892B809302020895809568
:10194000909102028923809302020895109202026C
:1019500008958091F901089508950C94AC0C0C94AD
:10196000AD0C9091720292FD08C09091F901981708
:1019700021F08093F9010C94AF0C08958091F90146
:10198000882329F01092F90180E00C94AF0C08959F
:10199000CF93DF93E0910201F09103018091030264
:1019A0008083E0910201F091030190818091020215
:1019B000892B80838091F901882381F0E0910201D5
:1019C000F09103019081892B808380910201909195
:1019D00003010E94322281110E94BE0CC0910201BB
:1019E000D091030148E050E060EF71E0CE010E9429
:1019F000992A892B69F088E0FE01A0EFB1E00190FF
:101A00000D928A95E1F7CE01DF91CF910C94FB21E5
:101A1000DF91CF9108950C94AC0C9091720292FDDD
:101A200010C098E0899F90011124262B2093F80183
:101A30000E94EB078091F8018595859585950C941A
:101A40000B0D0C94EB071092F80180E00C940B0D39
:101A50002091F801809582238093F801982F977048
:101A600099F430E0482F082E000C550B2417350749
:101A700059F09091720292FD07C0859585958595E4
:101A80000E940C080C94230D08959091720292FB11
:101A9000222720F9281769F080FB92F990937202AF
:101AA00080917102909172020E948D0D82E00C94DF
:101AB000280D08958091720282FB882780F991E0B9
:101AC00089270C94450D81E00C94450D80E00C9421
:101AD000450D80E090E00E94BD2A21E0893E9E4FA6
:101AE00009F020E0822F089582E090E00C94AF2A64
:101AF00083E090E00C94AF2ACF9384E090E00E94C2
:101B0000AF2AC82F82E290E00E94AF2A2C2F30E04B
:101B1000A901582BCA01CF910895CF93C92F682FDF
:101B200084E090E00E94C32A6C2F82E290E0CF9183
:101B30000C94C32AAB01BC018FE090E00C94D52A31
:101B4000AB01BC0183E190E00C94D52A60E070E029
:101B5000CB010C94A00D60E070E0CB010E949A0DC7
:101B60000C94A60D69EE7EEF80E090E00E94E12AE1
:101B700060E082E090E00E94C32A60E083E090E0B1
:101B80000E94C32A1092B4011092B5011092B601BE
:101B90001092B70160E084E090E00E94C32A60E008
:101BA00082E290E00E94C32A60E085E090E00E941B
:101BB000C32A60E086E090E00E94C32A6FEF87E0CE
:101BC00090E00E94C32A40E050E0BA0188E090E033
:101BD0000E94D52A60E08DE090E00E94C32A40E098
:101BE00050E0BA0188E190E00E94D52A60E087E1E8
:101BF00090E00E94C32A40E050E0BA018CE190E0FE
:101C00000E94D52A60E070E080E290E00E94E12A24
:101C100040E050E0BA0188E190E00E94D52A0C949F
:101C2000AB0D0C94B20D682F8EE090E00C94C32A9B
:101C30000E94262360931202709313028093140271
:101C40009093150260930E0270930F02809310021E
:101C500090931102089585B7806885BF85B7806825
:101C600085BF08950C94071308950C94340E0C94BA
:101C7000340E0C94370E0C94340E0C943B0E0C94D2
:101C8000340E0E942B0E86E191E10E94DE210E941B
:101C90003F0E0C943D0E0E94350E0C94340E0E94A3
:101CA00019110C9452030E9411230E94CC100E941F
:101CB00021130E9458120E944F0E0E94C41D0E94C0
:101CC000BA1B0E942B130C94390E8F929F92AF92E5
:101CD000BF92CF92DF92EF92FF920F931F93CF9319
:101CE000DF93CDB7DEB72A970FB6F894DEBF0FBEED
:101CF000CDBF0E947C12982E81110E94180E84E0A4
:101D0000A82E82E0B82E00E010E0802E802F0E94E6
:101D10003D11D82EF501C1905F01C826B1F40F5FC7
:101D20001F4F0A30110589F78FEF89838A831B8241
:101D30000E941A238160782F9D838C8349815A8168
:101D40006B818D810E946E032FC08091160281FDF0
:101D50000E944311E12CFF24F3948C2D8F21F1F08C
:101D60000E94320E882399F0EE828F82DF2081E07C
:101D700009F480E088870E941A238160782F9A876F
:101D800089874E815F8168858A850E946E03F8018C
:101D9000EC5FFD4F8081F826F08206C0E394FF0CD3
:101DA000F8E0EF12DACFBBCF81E0911001C080E004
:101DB0002A960FB6F894DEBF0FBECDBFDF91CF914C
:101DC0001F910F91FF90EF90DF90CF90BF90AF9059
:101DD0009F908F9008950E94650E0E9407130E94A5
:101DE000F21B0C946303CF93DF930E94F50FEC0179
:101DF000811523E59207A0F5811532E5930708F0D8
:101E00009EC0811540E29407C0F4811551E095070A
:101E100008F0CDC0853A910550F48430910508F062
:101E2000C6C0019709F0C0C081E090E0C1C0805EEB
:101E30009109089708F4BBC0B7C0C11581E5D80760
:101E400008F077C0C11520E5D20708F051C0C115D0
:101E500030E4D30708F4A8C0DF70CE01906AA8C0B0
:101E6000811546E5940700F5811555E5950708F0BD
:101E700081C0C11584E5D80708F076C0CE01837013
:101E8000992721E030E002C0220F331F8A95E2F744
:101E90009C2F9695969540E2949FE0011124C22BC9
:101EA000D32BCE019A6884C081152AE5920780F46D
:101EB000811539E5930708F066C0811548E5940758
:101EC00008F472C0D82FCC27CE01806F906A70C002
:101ED00090568115904208F067C08D2F8F710E9437
:101EE0008910DD27D0628F71AE01582BCA0160C006
:101EF000CE0174E0969587957A95E1F7282F2370A7
:101F00003C2F337081E090E002C0880F991F3A9512
:101F1000E2F79C68AC01522B9A019C2F9F7096951A
:101F2000969550E2959FE0011124C9018C2B9D2BC1
:101F30003FC0DC2FCC27CE01816F906A39C08370FF
:101F4000992721E030E002C0220F331F8A95E2F783
:101F50009C2F9695969580E2989FE0011124C22BC4
:101F6000D32BCE019C6824C0DC2FCC27CE01846FFC
:101F7000906A1EC00E9489108F7190E0D82FCC27E4
:101F8000CE01906215C08F700E94891094E0D695A2
:101F9000C7959A95E1F7CF70D0E0DC2FCC27D069B8
:101FA0009E01282BC90104C080E090E001C0CE0151
:101FB000DF91CF910895E72FF0E09AE0899FE00D3F
:101FC000F11D112483E0EE0FFF1F8A95E1F7E60F64
:101FD000F11DEE0FFF1FE852FF4F85919491089578
:101FE0000E94DB0F0E94F30E08958238910569F17B
:101FF000B0F48133910509F46DC048F4893291053C
:1020000009F463C08A32910509F469C008958533E3
:10201000910509F455C089339105B9F00895833EBF
:10202000910569F138F4803E9105B1F0823E910549
:1020300009F10895863E9105A9F1873E9105B9F110
:10204000843E910509F064C023C02091710220FDF7
:102050004FC021FD4DC008958091710280FD44C0A4
:102060008091720280FF44C08091710284FD42C061
:1020700083EE4DC08091710282FF38C0F5CF809110
:10208000710282FD33C08091720280FD31C0ECCFBD
:102090008091720281FF32C08091710284FD2AC05A
:1020A00087EE35C08091710283FF26C0F5CF809105
:1020B000710283FD21C08091720281FD1FC0ECCFAF
:1020C0008091710285FD1CC01DC08091710285FD4B
:1020D00019C016C08091710286FD16C017C080918C
:1020E000710286FD13C010C089E311C082EE0FC0DB
:1020F00080EE0DC080E00BC086EE09C084EE07C004
:1021000089E205C085E303C08AE201C081E390E073
:1021100008959091710292FF0DC0282F28712830E8
:1021200019F4877F846006C0282F2471243011F4AD
:102130008B7F886093FF0DC0282F2871283119F4F8
:10214000877E846106C0282F2471243111F48B7E90
:1021500088612091720220FF0DC0382F387138300D
:1021600019F4877F816006C0382F3171313011F446
:102170008E7F886021FF0DC0282F2871283119F427
:10218000877E816106C0282F2171213111F48E7E56
:10219000886194FD877E089510926D0210926E0200
:1021A00010926F02109270020895CF92DF92EF9218
:1021B000FF926B017C010E94071381110EC00E94E7
:1021C0002623C61AD70AE80AF90AC0926D02D092ED
:1021D0006E02E0926F02F0927002FF90EF90DF903B
:1021E000CF9008950F931F930E940713882321F027
:1021F0001F910F910C9426230E94262300916D02BB
:1022000010916E0220916F0230917002600F711F69
:10221000821F931F1F910F9108950E940713811130
:102220000C941A230E94F210CB01089580E00895C7
:1022300008950E94690D811102C00E94110E0E9432
:10224000740D809316020E947C0D9093720280930D
:1022500071020E9418110E94780D682F70E080E0D2
:1022600090E00E948B076091B0017091B101809164
:10227000B2019091B3010C94C307E82FF0E0E2584B
:10228000FD4F80810895089580EA8A95F1F70895B9
:1022900000C008950C94441108950C944C110C94B2
:1022A0004D110C944C110C9451110C944C11FF9243
:1022B0000F931F93CF93DF9300D000D01F92CDB721
:1022C000DEB70E940713609188028823E9F185E058
:1022D000F82E8E010F5F1F4FF8018F2D11928A95F6
:1022E000E9F7862F90E0B80182589D4F0E9439137C
:1022F000882389F08091730290E045E050E0B801B6
:1023000082589D4F0E94992A21E020931702892B21
:1023100061F410E016C0809117028823D1F3F80110
:102320001192FA94E9F710921702A0917302B0E0AB
:10233000A258BD4F85E0F80101900D928A95E1F712
:1023400011E00E94D8020DC070E062587D4F80916C
:10235000730290E082589D4F0E94C3130E94551152
:1023600010E0812F0F900F900F900F900F90DF9142
:10237000CF911F910F91FF900895F894E82FE29567
:10238000EF70F0E031A1282F2F7081E090E001C0C4
:10239000880F2A95EAF7982F9095932391A392A1FD
:1023A000892B82A3789408950F931F93CF93DF9383
:1023B000CDE4D1E089918F3F11F00E94BD1181E001
:1023C000C235D807B9F7C5E4D1E00DE411E0899131
:1023D0008F3F11F00E94BD110C171D07C1F7DF914F
:1023E000CF911F910F910895CF92DF92EF92FF92BC
:1023F0000F931F93CF93DF938C01C62FD0E0CE01B4
:10240000835B9E4F7C01FC0190819F3F09F447C094
:10241000D62EF894E92FE295EF70F0E081A19F703D
:1024200021E030E001C0220F9A95EAF7822B81A3C8
:1024300082A12095282322A378940E944811E5E4E4
:10244000F1E04DE451E031E0C12C21912F3F89F0C2
:10245000A22FA295AF70B0E090968C9190E02F7073
:1024600002C0959587952A95E2F780FD02C0832FDB
:1024700001C080E0C82A330F4E175F0731F7F7011C
:1024800080818F3F11F00E94BD1161E0C11001C039
:1024900060E08D2D0E944A11C00FD11FC882DF91CC
:1024A000CF911F910F91FF90EF90DF90CF90089503
:1024B0008091040180910401811102C095E001C066
:1024C00090E09093880285E0891B809373020E94BC
:1024D000D4118AE0EEE7F2E0DF01982F1D929A9581
:1024E000E9F7E4E7F2E0DF011D928A95E9F785E07C
:1024F0000E94D0120C94D602EF92FF920F931F937A
:10250000CF93DF93CDB7DEB72A970FB6F894DEBF2F
:102510000FBECDBF8E010F5F1F4F8AE0F8011192F1
:102520008A95E9F7F12C6F2DC8010E94F411F394FC
:10253000F5E0FF12F8CF4AE050E0B80184E792E0FE
:102540000E94992A7C0121E0892B09F420E0E11402
:10255000F10441F08AE0F801A4E7B2E001900D92A5
:102560008A95E1F76091880270E062587D4F45E0FE
:1025700084E792E00E94D112EF2819F40E945711CB
:1025800002C081E090E02A960FB6F894DEBF0FBE3D
:10259000CDBFDF91CF911F910F91FF90EF900895E4
:1025A0000895FF920F931F93CF93DF938C01F62E24
:1025B000D72FC42F222349F081E080931A020E9472
:1025C0001A23909319028093180280911A0288238B
:1025D000C1F080911802909119020E943223059750
:1025E00080F0EF2DFD2FD8014C2F50E0CD01801B46
:1025F000910B841795071CF48D918193F7CF10925E
:102600001A02DF91CF911F910F91FF900895809151
:102610001D0281110DC00E94FE29811102C082E0BD
:1026200001C081E080931D02823011F40E94F929DB
:1026300081E090911D02913009F080E008950C94A2
:1026400007130E941F13809304010E940713811136
:102650000C94711308950E940713811102C00C9409
:102660007313089581E090911E029A3008F080E083
:1026700008950F931F93CF93DF93EC018B0180910B
:102680001E028A3038F4B801CE010E94C1138111B4
:102690001DC00AC080911B0290911C020E9432232F
:1026A000843F914080F715C080911E028F3F19F042
:1026B0008F5F80931E0280911E028A3060F00E941C
:1026C0001A2390931C0280931B0203C010921E02D7
:1026D00002C080E001C081E0DF91CF911F910F9196
:1026E00008950C9477200C947A20DF92EF92FF9259
:1026F0000F931F93CF93DF937901C82F880FDD0BC2
:1027000041155105A9F0FE0193E0EE0FFF1F9A95C8
:10271000E1F7EB5FFE4F81819281815E9D4F2081C9
:1027200030E04217530708F49A01A9010E94A62A33
:10273000CE010E946321D82E8823D1F00115110506
:10274000B9F083E0CC0FDD1F8A95E1F7FE01EB5F66
:10275000FE4F438150E00417150708F4A801CB5F32
:10276000DE4F6C817D81615E7D4FC7010E94A62A8C
:102770008D2DDF91CF911F910F91FF90EF90DF9002
:1027800008950C9428150C944C150F931F93CF9318
:10279000DF9300D000D0CDB7DEB760913E027091DC
:1027A0003F0280914002909141020E944123643691
:1027B00071058105910528F10E94F210DC01CB0121
:1027C0000296A11DB11D89839A83AB83BC8300E06F
:1027D00010E020E030E044E050E0BE016F5F7F4F4A
:1027E00082E00E947513182F882361F00E9426232F
:1027F00060933E0270933F028093400290934102A7
:1028000001C011E0812F0F900F900F900F90DF917A
:10281000CF911F910F910895AF92BF92CF92DF9207
:10282000EF92FF920F931F93CF93DF937C015B0195
:102830006A010E943213811103C001E010E002C05E
:102840000AE010E0C1E0D0E0F894B501C701F6015C
:1028500009957894811115C021960C171D0794F0E5
:10286000CC9F9001CD9F300D300D112480E090E081
:1028700045E34A95F1F70000019682179307C1F7E7
:10288000E3CF81E0DF91CF911F910F91FF90EF9007
:10289000DF90CF90BF90AF9008950F931F93CF9389
:1028A000DF93CDB7DEB728970FB6F894DEBF0FBE23
:1028B000CDBFCE0101960E94AD1A188560914202EB
:1028C0007091430280914402909145020E944123FD
:1028D000643671058105910510F41123D9F000E0EB
:1028E00010E020E030E048E050E0BE016F5F7F4F35
:1028F00083E00E947513882359F00E942623609379
:10290000420270934302809344029093450202C0B6
:1029100080E003C00E94AA1A81E028960FB6F894BE
:10292000DEBF0FBECDBFDF91CF911F910F910895F4
:10293000AF92BF92CF92DF92EF92FF920F931F93CD
:10294000CF93DF9300D000D000D0CDB7DEB77B01AE
:10295000C0905201D090530101E010E09E012A5F27
:102960003F4F40E050E060E070E080E00E9475136F
:10297000182F882309F43EC056018FEFA81AB80A11
:1029800060913A0270913B0280913C0290913D022D
:102990000E944123643671058105910518F105E017
:1029A00010E09E012F5F3F4F40E050E060E070E09C
:1029B00081E00E947513182F65E070E0C5010E9448
:1029C000C51D91E02E81281390E0192339F10E9452
:1029D000262360933A0270933B0280933C029093CB
:1029E0003D0211C065E070E0C5010E94C51D9E81D9
:1029F0008913D5CF85E0F6013196DE01119601905D
:102A00000D928A95E1F7112349F085E0FE01319698
:102A1000A5E3B2E001900D928A95E1F785E0E5E348
:102A2000F2E0D70101900D928A95E1F7812F269669
:102A30000FB6F894DEBF0FBECDBFDF91CF911F91CF
:102A40000F91FF90EF90DF90CF90BF90AF900895DF
:102A50000F931F93CF93DF93EC018B0148E954E16F
:102A60000E940C14882391F045EC53E1B801CE018B
:102A70000E940C14882351F04DE454E1B801CE01BA
:102A8000DF91CF911F910F910C940C1480E0DF9196
:102A9000CF911F910F9108950F931F93CF93DF93C1
:102AA000F894C0915201D0915301CE01019625E0D6
:102AB000FB01DC0101900D922A95E1F765E070E0E1
:102AC0000E94C51D88837894F8946E817F818885E3
:102AD0009985009131021091320220913302309198
:102AE0003402601771078207930751F06093310237
:102AF0007093320280933302909334020E94D51077
:102B00007894F8948989882331F060E0CE010A96A0
:102B10000E94851B198A7894DF91CF911F910F91A4
:102B200008950E94D2240E94530E0C94DE240E9429
:102B3000E2240E94EB0E0C94FC240E94B8220E9416
:102B4000B9240E94410E0E9491150E9497150E947F
:102B50004B0EFBCFEF92FF920F931F93CF93DF9318
:102B60008B01682F11110AC0442329F0E82FF0E0EF
:102B7000E15DFC4F6491762F862F75C0212F30E0E8
:102B8000E82FF0E0442321F0E15DFC4FE491F0E018
:102B900046E0049FC0011124CFEFD0E0BE010E94A7
:102BA0000B2A4BEA4603C001479F900D1124800F6A
:102BB000911D800F911D982F990F890FAE01421B17
:102BC000530B4E9FD0014F9FB00D5E9FB00D11244F
:102BD0009B2F189FA0011124452F55278E01041B00
:102BE000150B0E9FA0010F9F500D1E9F500D11241D
:102BF0007E01E81AF108E29E8001E39E100DF29E2C
:102C0000100D1124212F3327C21BD30BCE9F90010F
:102C1000CF9F300DDE9F300D112462307105A9F079
:102C200048F46115710569F061307105C9F48B2FA5
:102C3000752F0DC06430710581F058F06630710554
:102C400079F47E2F8B2F932F0DC0832F7B2F9E2FF8
:102C500009C08E2F7B2F952F05C08E2F732F02C09A
:102C60007E2F852F692FDF91CF911F910F91FF90BC
:102C7000EF90089541E00E94AA15089508950E94DA
:102C80003A160895CF93DF93762FE901682F842FAA
:102C90000E943F16798368838A83DF91CF910895DC
:102CA00080918902282F269530E02115310519F4ED
:102CB0008170826005C02532310524F081708864FE
:102CC00080938902089588E090E00C94B72ACF920F
:102CD000DF92EF92FF926B017C010E945016B701C8
:102CE000A60188E090E0FF90EF90DF90CF900C94E9
:102CF000D52AE9E8F2E083E0808311828FEF8283B6
:102D000083831482A3E5B2E012968C9112978360BC
:102D100012968C9360817181828193810C946716E5
:102D20008091890280FF02C08695089580E0089511
:102D300090918D02933018F49F5F90938D028823B9
:102D400051F06091890270918A0280918B0290917A
:102D50008C020C946716089581E00C94981690915B
:102D60008D02992319F0915090938D02882351F090
:102D70006091890270918A0280918B0290918C02FD
:102D80000C946716089581E00C94AF1670E00C94D3
:102D9000991D609129018091890280FF0AC080916C
:102DA000280123E0829FC001112482579D4F0C947B
:102DB000C61680912A0190912B01891780F7E82F80
:102DC000F0E09F01220F331FE20FF31FE257FD4F88
:102DD0001182108212828F5FF0CF9091890290FF52
:102DE00016C090912A0120912B01921770F4E92FBF
:102DF000F0E0DF01AA0FBB1FEA0FFB1FE257FD4FF8
:102E00008183608342839F5FF0CF0C94C91608953D
:102E1000CF93DF9300D01F92CDB7DEB79091890298
:102E200090FF0AC09E012F5F3F4F0E9442164B81C8
:102E300069818A810E94ED160F900F900F90DF91AB
:102E4000CF910895CF93DF93EC01EC81F0E0E65D44
:102E5000FD4F4491E9E8F2E0628181810E94081708
:102E60008C818F5F8C83DF91CF910895CF93DF9317
:102E7000EC01E9E8F2E0438162818C810E9408174D
:102E80008C818F5F8C83DF91CF9108950F931F9377
:102E9000CF93DF9300D01F92CDB7DEB78C01809126
:102EA000460281110AC09E012F5F3F4F4FEF6FEF27
:102EB0000E9442168A8180934602F8018481813003
:102EC00051F028F0823061F4409146020AC08091AE
:102ED000460240E007C06091460240E080E003C047
:102EE00040E080E060E00E94ED16F801848190E00F
:102EF000019663E070E00E941F2A84830F900F9078
:102F00000F90DF91CF911F910F910895AF92BF92D3
:102F1000CF92DF92EF92FF920F931F93CF93DF93A5
:102F200000D01F92CDB7DEB7182FF62E042FE22E59
:102F30009091890290FF7EC0E92FE695AE2FB0E018
:102F4000AC5ABE4F8C91809353029E7F923061F4B5
:102F50009E012F5F3F4F812F0E9442164B81698156
:102F60008A810E94ED1643C0823019F400918C02D0
:102F70003EC0863019F410918A0239C08930D9F3E5
:102F80008931A9F5E9518E2F8170D82EE695F0E0B0
:102F9000E65DFC4FA590B490C12CBB2460912C0140
:102FA000C61618F52C2D30E0A29EC001A39E900DF0
:102FB000B29E900D112470E00E940B2A812FD11037
:102FC00002C0860F01C0861B90912A01290F311D76
:102FD000A901440F551F240F351F22573D4F402F85
:102FE0006F2D0E944216C394D9CF0E94C9168091BA
:102FF0008A02181308C080918B02F81204C08091D5
:103000008C02081729F08091550282608093550246
:1030100010938A02F0928B0200938C02EE2051F002
:103020006091890270918A0280918B0290918C024A
:103030000E9467160F900F900F90DF91CF911F9114
:103040000F91FF90EF90DF90CF90BF90AF900895D9
:10305000E9E8F2E09181282F438162818AE0890FBB
:103060000C94861781E00C942818E9E8F2E091812D
:10307000282F4381628186EF890F0C94861781E0A7
:103080000C943518E9E8F2E0628121E1620F08F45E
:103090006FEF282F438181810C94861781E00C9477
:1030A0004218E9E8F2E0628121E1621B08F460E085
:1030B000282F438181810C94861781E00C9451184C
:1030C000E9E8F2E0438121E1420F08F44FEF282FB5
:1030D000628181810C94861781E00C946018E9E884
:1030E000F2E0438121E1421B08F440E0282F628195
:1030F00081810C94861781E00C946F1820E00C9469
:103100008617FF920F931F93CF93DF93EC01F12C5F
:103110000FEF10E060912C01F616F0F480912A0177
:103120002F2D30E0280F311DC901880F991F280F5E
:10313000391F22573D4F70E0C8010E941F2A962F69
:103140008C8140918C0260918B02F99E800D11243C
:103150000E944216F394DECF0E94C9169A818C8198
:1031600090FF02C08F5F01C081508C83DF91CF91AF
:103170001F910F91FF9008959F92AF92BF92CF92AF
:10318000DF92EF92FF920F931F93CF93DF93EC01A7
:103190008A8180FF03C0BB24BA9402C0BB24B394CD
:1031A0008C8181110DC081E0B81206C080912C0184
:1031B00081508093480202C01092480281E08C83C3
:1031C000A12C80912C01A81608F041C080912A0101
:1031D000CA2CD12C8601080F111DC801880F991F18
:1031E000080F191F02571D4FF80111821082128219
:1031F00034E0E32EF12C912C80914802890D893026
:1032000014F0877005C087FF03C090912C01890FCF
:10321000082E000C990BC816D90691F480918C02E7
:103220008E9DA0018F9D500D112455954795559564
:103230004795980160918B0280918A020E94421604
:103240009B0CF1E0EF1AF108B9F6A394BACF0E94F3
:10325000C9168091480291E0B9120EC0811107C0D1
:1032600080912C018150809348021C820FC08150B4
:1032700080934802BC820AC090E0019660912C01C4
:1032800070E00E941F2A809348028C83DF91CF91C7
:103290001F910F91FF90EF90DF90CF90BF90AF9074
:1032A0009F9008951F93CF93DF93EC018C81811140
:1032B00009C081E08C831092470292E0909327012D
:1032C0008093260180912A0190912B01891770F437
:1032D000E82FF0E09F01220F331FE20FF31FE257A8
:1032E000FD4F1182108212828F5FF0CF10E060914B
:1032F0002C011617C0F5E12FF0E070E0CF010E941D
:103300001F2A20912A01820F20914702022E000CD1
:10331000330B90E0E217F307CCF020912701022E47
:10332000000C330B2E173F078CF09C01220F331F2C
:10333000820F931F9C0122573D4F40918C02609158
:103340008B0280918A020E9442160BC0FC01EE0F94
:10335000FF1F8E0F9F1FFC01E257FD4F118210824D
:1033600012821F5FC4CF0E94C9168091260120914E
:103370004702280F2093470290912701980F9093BE
:10338000270119165CF4022E000C330B40912C011E
:1033900050E0415051092417350734F0819580934E
:1033A0002601813009F41C82DF91CF911F9108958D
:1033B0008F929F92AF92BF92CF92DF92EF92FF9245
:1033C0000F931F93CF93DF938C01FC014481C42F93
:1033D000D0E09E01DE010E94632A9B01AC010E94A5
:1033E000792A6B017C01E0E2F0E0EC1BFD0BA5E526
:1033F000B0E09B01AC010E94792A4B015C019F0166
:10340000DF010E945B2A9B01AC010E94842A9B0180
:10341000AC012C0D3D1D4E1D5F1DC501B4010E9468
:10342000332AC22FD22F2A3228F4F3E02F9F9001A3
:1034300011240DC025E530E02C1B3109C901880F8E
:10344000991F280F391F37FF02C02F5F3F4F359557
:103450002795C22FC095F12C85E5E82EED1A8091B5
:103460002C01F816C8F4F1FC02C08E2D01C08D2F7E
:1034700090912A012F2D30E0290F311DA901440F11
:10348000551F240F351F22573D4F4C2F60918B0243
:103490000E944216F394E3CF0E94C916F80184817A
:1034A000811102C091E003C0803219F49FEF909324
:1034B000250190912501890FF8018483DF91CF9137
:1034C0001F910F91FF90EF90DF90CF90BF90AF9042
:1034D0009F908F9008950F931F93CF93DF93EC01EC
:1034E00000E010E080912C01282F30E00217130734
:1034F00024F590912A019801290F311DA901440F4B
:10350000551F240F351F22573D4F869590E04C8163
:10351000081719071CF4442331F002C0411103C0FD
:1035200040918C0201C040E060918B0280918A0240
:103530000E9442160F5F1F4FD5CF0E94C9168C8183
:1035400090E00196817099278C83DF91CF911F9134
:103550000F91089510925502089525E0E9E8F2E0F0
:10356000DC0101900D922A95E1F7209153023091F0
:10357000540240915502FC01258336834783089508
:1035800060918902669570E04BE050E08DE291E039
:103590000E948C2A892B19F481E0809354020E94A6
:1035A0000D1190934D0280934C02809155028460DE
:1035B000809355020895E3E5F2E0118282818460F0
:1035C000828308959091890290FF3AC09170811191
:1035D00002C0926006C0853210F0986402C0880F65
:1035E000982B9093890280915502816080935502B7
:1035F000662351F06091890270918A0280918B025A
:1036000090918C020E94671660918902669570E025
:103610004BE050E08DE291E00E948C2A892B19F05A
:103620000E94DB1A02C00E94C01A81E080934F0200
:1036300040918C0260918B0280918A020C947E18DA
:103640000895682F90918902969581E0890F8532BF
:1036500008F081E00C94E21A81E00C94211B682FA1
:103660009091890296958FEF890F09F484E20C946A
:10367000E21A81E00C942F1B61E00C94E21AE9E855
:10368000F2E080818160808386950C943C1B60E031
:103690000C94E21AE9E8F2E080818E7F80836081F9
:1036A0007181828193810E9467160E94DB1AE3E593
:1036B000F2E08281816082832FEF80E792E02150E7
:1036C00080409040E1F700C000000C94C916809142
:1036D000890280FD0C944A1B0C943F1BE9E8F2E040
:1036E00080818E7F80830E94DB1AE3E5F2E0828195
:1036F000816082832FEF80E792E0215080409040EC
:10370000E1F700C000000C94C9161F93CF93DF931C
:10371000EC01162F8F8180FF0FC0888180FF0AC0C7
:1037200080918902816080938902888186950E94B8
:10373000E21A02C00E946E1B8F8181FF06C0212FFA
:103740004B816A8189810E9486178F8182FF08C020
:103750008E81882319F00E94C01A02C00E94DB1AD1
:103760008F8183FF03C081E080934F02DF91CF916F
:103770001F91089580915202811133C00E94690DFA
:10378000811104C00E94110E0E9479160E946316D6
:103790006093890270938A0280938B0290938C02CB
:1037A000809155028360809355026E7F61F40E9480
:1037B00079160E9463166093890270938A0280933F
:1037C0008B0290938C020E9450160E94DB1A80910B
:1037D000890280FF03C086950E94471B81E0809389
:1037E00052020895EF92FF920F931F93CF93DF93AE
:1037F00080915402882309F4ABC080915302E09178
:103800008902E695E81BE0934E02823049F4F0E02D
:10381000EA5DFD4FE491CE2FD0E002E217E149C00E
:10382000863049F4F0E0ED5DFD4FE491CE2FD0E01D
:1038300006E317E13EC0893051F4E695F0E0E05E22
:10384000FD4FE491CE2FD0E001E818E132C08F3077
:1038500051F4E695F0E0E35EFD4FE491CE2FD0E029
:103860000CEB18E126C0853149F4F0E0E65EFD4F2F
:10387000E491CE2FD0E002E519E11BC0883181F040
:10388000833239F4E8E1F2E0C591D49106E417E11E
:1038900010C0843251F4C4EFD1E00BE61AE109C044
:1038A000C8E2D0E008ED19E104C0C0EDD7E00EE3B6
:1038B00016E180914F02882361F010924F020E941E
:1038C0000D1190934D0280934C0210925102109270
:1038D00050020E940D11E0914C02F0914D029C01AA
:1038E0002E1B3F0B2F3F3F4798F520914B02222381
:1038F000B1F010924B022091490230914A02821B92
:10390000930B8F3F9F4758F4205D3A4830934A020B
:103910002093490280915502886080935502E0907F
:103920005002F0905102EC0FFD1FF0934D02E09316
:103930004C028CE492E0F80109958091500290913C
:103940005102892B29F4EF2819F081E080934B0272
:10395000DF91CF911F910F91FF90EF9008958823F1
:1039600011F0FA0101C0FB010994CF93DF93C82F36
:10397000D62F0E9490168C1740F00E9490168D173B
:1039800020F4DF91CF910C942C1B8C2FDF91CF91E1
:103990000C943C1B1F93CF93DF93FB0112811111F9
:1039A000C3C0EC010E94860C8272CD3CFCE5DF07AF
:1039B00009F49AC0A8F5C73CECE5DE0709F476C027
:1039C000A8F4C43C9CE5D90709F45FC028F4C33CC3
:1039D000DC4509F457C054C0C53C9CE5D90709F43F
:1039E00059C0C63CDC4509F45CC04AC0CA3CFCE591
:1039F000DF0709F46AC050F4C83CECE5DE0709F4BF
:103A00005AC0C93CDC4509F45BC03AC0CB3C9CE5DC
:103A1000D90709F45FC0CC3CDC4509F460C030C074
:103A2000C23DFCE5DF0709F46FC088F4CF3C9CE59C
:103A3000D90709F460C008F45CC0C03DFCE5DF07AD
:103A400009F45CC0C13DDC4509F45BC019C0C53D4B
:103A50009CE5D90709F460C050F4C33DFCE5DF07DD
:103A600009F455C0C43DDC4509F454C009C0C63D45
:103A70009CE5D90709F455C0CE35DD4509F454C09D
:103A800011E052C00E94671B4FC049E35BE16CE24A
:103A90007BE104C04CE25BE169E37BE10E94AF1C87
:103AA00043C04FE358E162E378E1F8CF42E358E1E5
:103AB0006FE378E1F3CF4DE558E16EE478E1EECFC6
:103AC0004EE458E16DE578E1E9CF4BE758E16CE66B
:103AD00078E1E4CF4CE658E16BE778E1DFCF43ECE7
:103AE00056E16CEA76E1DACF4CEA56E163EC76E136
:103AF000D5CF81E017C065E082E010C068E086E0C5
:103B00000DC06EE089E00AC064E18FE007C067E1A4
:103B100085E104C088E106C062E289E10E94B51C2B
:103B200003C083E20E943C1B812FDF91CF911F9144
:103B30000895539A2BB1277F3BB138604FB7F89463
:103B4000FC01CB01880F991F680F791F6E0F7F1F33
:103B5000E617F70789F0819198E03BB9000000C0B3
:103B600087FF2BB9880F000000C000C000C02BB930
:103B700000C09A9591F7ECCF4FBF8FE594E0019785
:103B8000F1F700C0000008950895FC01680F791F47
:103B90008FEF91E3E617F70771F02191822728E074
:103BA00030E087FF03C0880F892701C0880F2150AC
:103BB0003109B9F7EFCF0895CF93DF93EC01FB0103
:103BC0008281882309F43CC1C430FDE5DF0760F43D
:103BD000CB3F9CE5D90788F49E0122503C45243117
:103BE000310508F02EC109C0C236EDE5DE0729F027
:103BF000C63AFDE5DF0709F024C10E947C0D9093D1
:103C0000720280937102C1318CE5D80709F4C6C0F5
:103C100008F042C0C930ECE5DE0709F49BC000F5AE
:103C2000C5308CE5D80709F485C078F4C330ECE5DD
:103C3000DE0709F478C008F07AC0C230DC4509F02C
:103C4000F5C0809171028160EFC0C7309CE5D90753
:103C500009F478C008F07AC0809171028061E4C0F4
:103C6000CD30FCE5DF0709F487C058F4CB309CE584
:103C7000D90709F479C008F07BC08091710288608F
:103C80006FC0CF30FCE5DF0709F480C008F082C0C8
:103C900080917102877FC8C0CE3F9CE5D90709F4A7
:103CA00071C000F5C531FCE5DF0709F485C068F493
:103CB000C3319CE5D90709F475C008F095C00E948E
:103CC0003307809171028F77AFC0CC3FFCE5DF07EF
:103CD000A9F108F054C0CB3FDC4509F0A7C08091A2
:103CE000720240C0C230EDE5DE0709F489C058F425
:103CF000C1158DE5D80709F45AC008F069C0809154
:103D0000720282602FC0C236EDE5DE0709F47CC086
:103D1000C63AFDE5DF0709F481C0C330DD4509F08F
:103D200085C080E06EC08091710282607DC080910C
:103D3000710216C080917102886076C08091720213
:103D400082604FC08091710280626EC0809171026A
:103D500080646AC00E94330780917102806864C0E9
:103D6000846062C081603DC0809171028E7F5CC0C2
:103D7000809171028D7F58C08091710216C0809130
:103D8000720218C0809172028D7F2BC080917102E7
:103D90008F7E4AC0809171028F7D46C080917102F2
:103DA0008F7B42C080917102877F8B7F3DC0809165
:103DB00072028D7F8E7F15C08091710282FB222757
:103DC00020F991E0922790FB82F990FB83F92CC0B7
:103DD00080917202982F909591708E7F892B90FB25
:103DE00081F98093720222C00E9433078091710290
:103DF00087FB222720F991E0922790FB87F914C0D6
:103E000081E00E94130E12C08091710284FB222770
:103E100020F991E0922790FB84F906C0809171020D
:103E2000982F909590FB80F9809371028091710298
:103E3000909172020E948D0D0E94330780E001C0B4
:103E400081E0DF91CF910895CF93DF9386319C4538
:103E500041F5EB010E94860C982F8A812091020186
:103E600030910301882379F09A7A81E009F480E0A7
:103E700080935602911102C069E201C065E3C90155
:103E80000E9474220AC080915602811102C069E228
:103E900001C065E3C9010E9476220E94C80C80E03F
:103EA00001C081E0DF91CF9108950F931F93CF93CD
:103EB000DF93C42FD22FFC0182818823C9F0409365
:103EC00059020E941A23909358028093570280E26D
:103ED0008C0F883008F057C0C77081E001C0880F90
:103EE000CA95EAF7DF91CF911F910F910C94C50409
:103EF00080915902481330C0809157029091580226
:103F00000E943223883C910538F510E21D0FCD1731
:103F1000B9F080E28C0F883040F4C77081E001C0B6
:103F2000880FCA95EAF70E94CC04183028F581E082
:103F30009D2F977001C0880F9A95EAF70E94C504DB
:103F4000802F0E94BC041830F0F4D77081E001C0CB
:103F5000880FDA95EAF70AC080E28C0F883098F46F
:103F6000C77081E001C0880FCA95EAF7DF91CF9151
:103F70001F910F910C94CC04802FDF91CF911F9152
:103F80000F910C94BC04DF91CF911F910F91089574
:103F90000F939C01CB01243F4CE5340731F188F4A9
:103FA000293DFCE53F07D9F02A3D4CE5340779F17E
:103FB000283D3C45A9F506E221EE41EE68ED7CE5A1
:103FC0002BC0263FFCE53F07E1F0A8F0273F3C452A
:103FD00039F507E225EE46EE67EF7CE51DC007E206
:103FE00025EE45EE69ED7CE517C006E221EE40EED8
:103FF00064EF7CE511C007E225EE44EE65EF7CE559
:104000000BC006E221EE42EE66EF7CE505C008E259
:1040100021E045EE6AED7CE50E94551F80E008C076
:10402000FC018281882319F01092590201C081E0BD
:104030000F9108958EE14A9B02C08150E1F74A9B9F
:10404000FECF08955A9880E28A95F1F75A9A08951A
:10405000FC012AE02A95F1F728E090E080E031E0C9
:1040600040E14A95F1F7880F4A9B02C0816093278F
:1040700000C0000040E14A95F1F7215089F720E1A6
:104080002A95F1F729B100C0000030E13A95F1F727
:1040900022FB222720F992272081920F90830895F6
:1040A000EF92FF920F931F93CF93DF931F92CDB7A1
:1040B000DEB719828C017C01E60EF11C0E151F057E
:1040C00051F00E941A20CE0101960E942820F8018A
:1040D00081938F01F3CF81E09981911180E00F905E
:1040E000DF91CF911F910F91FF90EF900895529A19
:1040F0005A9A089552985A9AEA9AE9E6F0E080812D
:104100008F7C80830895615091E001C0990F6A957A
:10411000EAF720E031E0992361F0492F482319F0B4
:104120005A9A232701C05A9840E24A95F1F796958A
:10413000F2CF222311F05A9A01C05A9880E28A9550
:10414000F1F75A980895FF920F931F93CF93DF933F
:10415000EC018C01060F111DC017D10741F0F99039
:104160000E94222068E08F2D0E948320F5CFDF91EE
:10417000CF911F910F91FF9008951F920F920FB64C
:104180000F9211240F931F932F933F934F935F939D
:104190006F937F938F939F93AF93BF93EF93FF930F
:1041A000CF93DF931F92CDB7DEB719820E941A20FA
:1041B000CE0101960E942820082F069506950695A7
:1041C000902F96959570202F2570920F292F237090
:1041D00096959695920F877089135FC0898181119A
:1041E0005CC0053008F059C080E18A95F1F75A9A11
:1041F000529A82E08A95F1F700C05A9888E0089FA9
:1042000080011124D801AB5FBE4F1696ED91FC9151
:1042100017973097A9F0609152017091530114964D
:104220002D913C911597260F371F11968D919C91DA
:104230001297680F791F13964C9113978C910995DB
:10424000F801EB5FFE4F6381662351F080915201CC
:104250009091530124813581820F931F0E94A320E6
:104260000E94222080E18A95F1F75A9852985A9A32
:1042700080E18A95F1F7F801EB5FFE4F60816623DC
:1042800051F0809152019091530121813281820F2E
:10429000931F0E9450200E941A200F90DF91CF910F
:1042A000FF91EF91BF91AF919F918F917F916F910E
:1042B0005F914F913F912F911F910F910F900FBEE2
:1042C0000F901F9018950F931F93CF93DF93853016
:1042D00091050CF06DC0EC01F894529A5A9885E063
:1042E0008A95F1F700009C2F969595702C2F2570DC
:1042F000920F892F83709695969523E0CC0FDD1F42
:104300002A95E1F7980F8E01092B0E94222084E064
:104310008A95F1F700C068E0802F0E94832080E139
:104320008A95F1F752985A9A4A9902C000C0FCCF78
:1043300087E090E04A9B08C0019721F4529A5A9A6C
:10434000789436C000C0F6CFFE01EB5FFE4F63816C
:10435000662381F08091520190915301248135812F
:10436000820F931F0E945020811104C0529A5A9AC2
:1043700078941FC00E941A2080E28A95F1F75A981B
:10438000529A80E18A95F1F7CB5FDE4F6881662310
:1043900051F0809152019091530129813A81820F0D
:1043A000931F0E94A3200E942220789481E001C0E4
:1043B00080E0DF91CF911F910F91089590937B0141
:1043C00080937A0108959093600280935F0208952C
:1043D0000E940713811103C080915A020895E09151
:1043E0005F02F0916002309721F00190F081E02DA2
:1043F000099480E00895E0915F02F09160023097A7
:1044000021F00280F381E02D0994089520915D024E
:1044100030915E022817390771F090935E02809305
:104420005D02E0915F02F0916002309721F006801A
:10443000F781E02D0994089520915B0230915C0290
:104440002817390771F090935C0280935B02E0912A
:104450005F02F0916002309721F00084F185E02D39
:1044600009940895FC01329697E080E0915029F07C
:1044700021912223D9F38F5FF9CF0895662349F064
:10448000FC01329608962191621729F0E817F90786
:10449000D1F780E0089581E008959C01FC013296F7
:1044A0009FEF80E04191461789F09F3F19F4411139
:1044B00001C0982F8F5F8630A9F79F3F39F0F9012F
:1044C000E90FF11D97FDFA956283089508959C0107
:1044D0002A5F3F4FFC014281461301C012820196C0
:1044E00082179307B9F708950C944D220C94672214
:1044F000029626E0FC0111922A95E9F708950895A5
:104500000C947F2283E0809361020C9480228111BD
:1045100002C081E001C082E0809361020C9480229D
:104520000C94872281E0809361020C9480220C9489
:10453000922208950C9499220C949A220C94992218
:104540000C9499220C949922CF930E94A0220E944D
:104550007C120E949E22C0E08C2F0E943D1181118E
:1045600004C0CF5FCA30C1F701C081E0CF91089588
:1045700008951F920F920FB60F9211248F939F935D
:10458000AF93BF9380916202811113C08091A60204
:104590009091A702A091A802B091A9024196A11DF5
:1045A000B11D8093A6029093A702A093A802B09396
:1045B000A902BF91AF919F918F910F900FBE0F9065
:1045C0001F9018958091AE02843031F10E94430310
:1045D0001092620220E488E190E00FB6F894A8956A
:1045E000809360000FBE2093600083B7817F84605A
:1045F00083BF83B7816083BF7894889583B78E7FAC
:1046000083BF0FB6F894A89580916000886180936D
:104610006000109260000FBE08950E9433070C9452
:10462000470382E084BD93E095BD9AEF97BD8093E8
:104630006E0008952FB7F8948091A6029091A7027A
:10464000A091A802B091A9022FBF08952FB7F894A6
:104650006091A6027091A7028091A8029091A90290
:104660002FBF08959C014FB7F8948091A6029091B6
:10467000A702A091A802B091A9024FBF821B930B81
:104680000895CF92DF92EF92FF922FB7F894C090E7
:10469000A602D090A702E090A802F090A9022FBF36
:1046A000A7019601261B370B480B590BCA01B9010C
:1046B000FF90EF90DF90CF90089578941F920F9223
:1046C0000FB60F9211248F939F93AF93BF93809156
:1046D000A6029091A702A091A802B091A90201960A
:1046E000A11DB11D8093A6029093A702A093A802DA
:1046F000B093A902BF91AF919F918F910F900FBE80
:104700000F901F90189587E797E790930108809383
:1047100000089AE088E10FB6F894A89580936000AD
:104720000FBE90936000FFCF80916B0208950895B3
:104730000895CF93DF9321E02093E9002FEF30918C
:10474000E800215035FD06C035ED3A95F1F700003F
:104750002111F5CF2091E80025FF14C0EC0140E0C5
:1047600050E068E070E00E945B258091E8008E7761
:104770008093E80088E0FE01A3E6B2E001900D928C
:104780008A95E1F7DF91CF9108950895089580917A
:10479000AD02811109C00E94EC260E944927809138
:1047A000E20084608093E20008951092AD020895C3
:1047B0000C9497226091AA0281E0611101C080E00F
:1047C0000C9482229091AE0281E0943009F080E056
:1047D0006091AA020C94872242E061EC81E00E9481
:1047E00065269091AE0281E0943009F080E06091FE
:1047F000AA020C9490228091B002833009F461C027
:1048000030F4813071F0823009F49AC008958A3012
:1048100009F486C08B3009F46CC0893009F0A8C057
:1048200020C08091AF02813A09F0A2C08091E800D7
:10483000877F8093E8008091B3029091B402892B26
:1048400021F468E083E692E003C060E080E090E05D
:1048500070E00E94A6258091E8008B778093E800A5
:1048600008958091AF02813209F082C08091B30235
:104870009091B402892B09F07BC08091E800877F7A
:104880008093E8008091E80082FD05C08091AE022F
:104890008111F8CF6DC02091F3008091F20090E07B
:1048A000922B029731F48091F100813011F0863023
:1048B00021F48091F10080936B028091E8008B7766
:1048C00053C08091AF02813A09F052C08091B30287
:1048D0009091B402892B09F04BC08091E800877F4A
:1048E0008093E8008091E80080FFFCCF8091440134
:1048F00036C08091AF028132D9F58091B302909198
:10490000B402892BA9F58091E800877F8093E800A5
:104910000E949A268091B102809344010C9433073F
:104920008091AF02813221F58091E800877F8093EA
:10493000E8000E949A268091B20280936C0208954A
:104940008091AF02813AA1F48091E800877F809343
:10495000E8008091E80080FFFCCF80916C0280939A
:10496000F1008091E8008E778093E8000C949A26FD
:10497000089584B7877F84BF0FB6F894A895809177
:104980006000886180936000109260000FBE90E02C
:1049900080E80FB6F89480936100909361000FBE99
:1049A0000C9492220E94EC260E944927E2EEF0E04D
:1049B00080818460808378940C94DE2988E391E080
:1049C0000C94E3218091AE028530A9F48091AE026F
:1049D000853079F40E94E2228091AC028823B1F301
:1049E0000E94A422882391F30E9445250E94330748
:1049F000EDCF0C940D23089508950C94FF24292FD6
:104A0000332723303105C1F058F42130310579F0D6
:104A10002230310591F582E290E025E534E031C0A5
:104A200021323105E1F02232310501F126C082E167
:104A300090E027E734E025C099278130910549F0BF
:104A400028F00297D1F4EFE2F4E005C0E1E5F4E0EC
:104A500002C0EFE3F4E0849190E09F0112C0672B65
:104A600061F489E090E027E634E00BC0672B29F47D
:104A700080E490E029E834E004C080E090E020E0A9
:104A800030E0FA0131832083089580E189BD82E11D
:104A900089BD09B400FEFDCF8091D8008F7D809341
:104AA000D8008091E00082608093E0008091E00077
:104AB00081FDFCCF0895CF92DF92EF92FF920F938A
:104AC0001F93CF93DF93EC018B017A010E94B926EB
:104AD000811133C0E114F10439F0F7018081918133
:104AE000081B190BC80FD91FC12CD12C011511059A
:104AF00019F18091E80085FD16C08091E8008E775D
:104B00008093E800E114F10449F0F701808191817C
:104B1000C80ED91ED182C08285E00FC00E94B9267E
:104B2000882321F30AC089918093F1000150110973
:104B3000FFEFCF1ADF0ADACF80E0DF91CF911F912C
:104B40000F91FF90EF90DF90CF9008952091B502E4
:104B50003091B6022617370748F06115710539F410
:104B60002091E8002E772093E80001C0B901FC01F4
:104B700020E06115710579F18091AE028823F1F191
:104B80008530F1F18091E80083FD3CC08091E80020
:104B900082FD2EC08091E80080FFEBCF2091F300D2
:104BA0008091F20090E0922B6115710551F08830F0
:104BB000910538F421912093F1006150710901961B
:104BC000F3CF21E0089709F020E08091E8008E778C
:104BD0008093E800CECF2111CFCF0AC08091AE02E2
:104BE000882361F0853061F08091E80083FD0AC080
:104BF0008091E80082FFF2CF80E0089582E008957E
:104C000083E0089581E008952091B5023091B602C5
:104C10002617370748F06115710539F42091E8002F
:104C20002E772093E80001C0B901FC0120E0611556
:104C3000710591F18091AE02882309F440C085305E
:104C400009F43FC08091E80083FD3DC08091E800F9
:104C500082FD2FC08091E80080FFE9CF2091F30012
:104C60008091F20090E0922B6115710559F0883027
:104C7000910540F424912093F1003196615071091F
:104C80000196F2CF21E0089709F020E08091E8003A
:104C90008E778093E800CBCF2111CCCF0AC08091D2
:104CA000AE02882361F0853061F08091E80083FDD9
:104CB0000AC08091E80082FFF2CF80E0089582E090
:104CC000089583E0089581E00895982F973068F55E
:104CD0009093E900981739F07091EC002091ED0065
:104CE0005091F00003C0242F762F50E021FD02C028
:104CF0009F5FECCF3091EB003E7F3093EB00309123
:104D0000ED003D7F3093ED003091EB00316030934A
:104D1000EB007093EC002093ED005093F000209195
:104D2000EE0027FDE5CF80E008958F708093E900C5
:104D300081E008958091AF0287FF11C08091E80063
:104D400082FD05C08091AE028111F8CF11C0809123
:104D5000E8008B770BC08091AE02882349F08091E8
:104D6000E80080FFF8CF8091E8008E778093E8001C
:104D700008952091E4003091E50095E64091EC0023
:104D8000842F817040FF23C08091E80080FD1DC00A
:104D90008091AE02882399F0853099F08091EB00E4
:104DA00085FD11C04091E4005091E50024173507BE
:104DB00029F3915011F09A01E1CF84E0089582E047
:104DC000089583E0089581E0089580E0089540917A
:104DD000E80042FFDDCF08950E945A270E94622713
:104DE000E0EEF0E0808181608083E8EDF0E080819A
:104DF0008F77808319BCA7EDB0E08C918E7F8C9368
:104E000080818F7E80831092AD0208950F931F934F
:104E1000CF93DF930E945A270E946227C8EDD0E00B
:104E200088818F77888388818068888388818F7D57
:104E3000888319BC1092AE021092AA021092AC02A2
:104E40001092AB0200EE10E0F80180818B7F80832E
:104E500088818160888342E060E080E00E9465266E
:104E6000E1EEF0E080818E7F8083E2EEF0E08081F1
:104E700081608083808188608083F80180818E7F5B
:104E80008083888180618883DF91CF911F910F910A
:104E90000895E8EDF0E080818F7E8083E7EDF0E01B
:104EA00080818160808384E082BF81E08093AD0255
:104EB0000C940627E8EDF0E080818E7F80831092CD
:104EC000E20008951092DA001092E10008951F9216
:104ED0000F920FB60F9211242F933F934F935F932E
:104EE0006F937F938F939F93AF93BF93EF93FF93B2
:104EF0008091E10082FF0BC08091E20082FF07C039
:104F00008091E1008B7F8093E1000E94DD298091F8
:104F1000DA0080FF1FC08091D80080FF1BC0809105
:104F2000DA008E7F8093DA008091D90080FF0DC077
:104F300080E189BD82E189BD09B400FEFDCF81E039
:104F40008093AE020E94C72305C019BC1092AE0226
:104F50000E94D5238091E10080FF19C08091E2007A
:104F600080FF15C08091E2008E7F8093E2008091E7
:104F7000E20080618093E2008091D800806280939B
:104F8000D80019BC85E08093AE020E94DA2380919C
:104F9000E10084FF30C08091E20084FF2CC080E1FA
:104FA00089BD82E189BD09B400FEFDCF8091D800A2
:104FB0008F7D8093D8008091E1008F7E8093E10007
:104FC0008091E2008F7E8093E2008091E200816018
:104FD0008093E2008091AA02882311F084E007C048
:104FE0008091E30087FD02C081E001C083E08093EF
:104FF000AE020E94E2238091E10083FF29C08091EC
:10500000E20083FF25C08091E100877F8093E1006B
:1050100082E08093AE021092AA028091E1008E7F1E
:105020008093E1008091E2008E7F8093E200809186
:10503000E20080618093E20042E060E080E00E9454
:1050400065268091F00088608093F0000E94D8234C
:10505000FF91EF91BF91AF919F918F917F916F9150
:105060005F914F913F912F910F900FBE0F901F9026
:1050700018951F920F920FB60F9211242F933F9302
:105080004F935F936F937F938F939F93AF93BF9350
:10509000CF93DF93EF93FF93C091E900CF7080919E
:1050A000EC00D82FD17080FDD0E81092E9008091FB
:1050B000F000877F8093F00078940E947D28109202
:1050C000E9008091F00088608093F000CD2BCF70D4
:1050D000C093E900FF91EF91DF91CF91BF91AF9124
:1050E0009F918F917F916F915F914F913F912F9100
:1050F0000F900FBE0F901F9018951F93CF93DF93C3
:10510000CDB7DEB7AA970FB6F894DEBF0FBECDBFFE
:10511000EFEAF2E08091F100819322E0E73BF207B1
:10512000C9F70E94FB238091E80083FF2EC1809184
:10513000AF029091B002492F50E04A30510508F07B
:1051400024C1FA01EE59FF4F0C94552A803821F002
:10515000823809F01AC108C08091AB029091AC026C
:10516000992389F082600FC08091B3028F708730DD
:1051700008F00BC18093E9008091EB0085FB882744
:1051800080F91092E9009091E800977F9093E800F1
:105190008093F1001092F100D1C0282F2D7F09F0EB
:1051A000F4C0882319F0823061F0EFC08091B10221
:1051B000813009F0EAC0933009F080E08093AC02BE
:1051C0002EC08091B10281112AC08091B3028F70EC
:1051D0002FEF280F263008F0D8C08093E9002091E7
:1051E000EB0020FF1CC0933021F48091EB00806223
:1051F00014C09091EB0090619093EB0021E030E0BF
:10520000A90102C0440F551F8A95E2F74093EA00B6
:105210001092EA008091EB0088608093EB0010927E
:10522000E9008091E800877F8093E8000E949A2639
:10523000ACC08111AAC01091B1021F778091E30028
:105240008078812B8093E3008091E800877F8093B2
:10525000E8000E949A268091E80080FFFCCF8091B0
:10526000E30080688093E300111102C082E001C076
:1052700083E08093AE0289C08058823008F085C0F8
:105280008091B1029091B2028C3D53E0950779F57F
:1052900083E08A838AE289834FB7F894DE0113960C
:1052A00020E03EE051E2E32FF0E050935700E4911C
:1052B00020FF03C0E295EF703F5FEF708E2F90E00C
:1052C000EA3010F0C79601C0C0968D939D932F5F72
:1052D000243149F74FBF8091E800877F8093E80031
:1052E0006AE270E0CE0101960E94A62516C0609188
:1052F000B3027091B402AE014F5F5F4F0E94FD2474
:10530000BC01892B09F441C09091E800977F9093EC
:10531000E80089819A810E9404268091E8008B77B9
:105320008093E80032C0803881F58091E800877F63
:105330008093E8008091AA028093F1008091E800B8
:105340008E7772CF811121C08091B1029091B2020B
:1053500099270297D4F48091E800877F8093E80032
:105360008091B1028093AA020E949A268091AA029B
:10537000811106C08091E30087FD02C081E001C079
:1053800084E08093AE020E94EC238091E80083FFCA
:105390000AC08091E800877F8093E8008091EB004D
:1053A00080628093EB00AA960FB6F894DEBF0FBE22
:1053B000CDBFDF91CF911F9108950895CF93809134
:1053C000AE028823A1F0C091E900CF709091EC006B
:1053D000892F817090FD80E8C82B1092E9008091A0
:1053E000E80083FD0E947D28CF70C093E900CF9133
:1053F00008950E94EC261092AE020895E8EDF0E0C8
:105400008081806180838AE18A95F1F700C0809174
:10541000D90081700895AA1BBB1B51E107C0AA1FC8
:10542000BB1FA617B70710F0A61BB70B881F991F45
:105430005A95A9F780959095BC01CD01089597FBE9
:10544000072E16F4009407D077FD09D00E940B2A8E
:1054500007FC05D03EF4909581959F4F0895709577
:1054600061957F4F0895A1E21A2EAA1BBB1BFD0177
:105470000DC0AA1FBB1FEE1FFF1FA217B307E40733
:10548000F50720F0A21BB30BE40BF50B661F771F8B
:10549000881F991F1A9469F760957095809590956B
:1054A0009B01AC01BD01CF010895EE0FFF1F0590D8
:1054B000F491E02D09940E94632A332312F48A1B8D
:1054C0009B0B0C94742AA29FB001B39FC001A39FB1
:1054D000700D811D1124911DB29F700D811D11242D
:1054E000911D08950E94632AB7FF0895821B930BB4
:1054F00008950E94632AA59F900DB49F900DA49FCC
:10550000800D911D11240895B7FF0C94792A0E94F3
:10551000792A821B930B0895FC014150504030F0D2
:1055200001900616D1F73197CF0108958827992762
:105530000895FB01DC0104C08D910190801921F4D4
:1055400041505040C8F7881B990B0895FB01DC01BE
:1055500002C001900D9241505040D8F70895F9993A
:10556000FECF92BD81BDF89A992780B50895A6E136
:10557000B0E044E050E00C94E92AA8E1B0E042E059
:1055800050E00C94E92A262FF999FECF92BD81BDF7
:10559000F89A019700B4021639F01FBA20BD0FB671
:1055A000F894FA9AF99A0FBE08950396272F0E944D
:1055B000C42A0E94C32A252F0E94C42A242F0C9497
:1055C000C42A0196272F0E94C42A0C94C32ADC0106
:1055D000CB01FC01F999FECF06C0F2BDE1BDF89AFE
:1055E000319600B40D9241505040B8F70895F894A8
:0255F000FFCFEB
:1055F200C800FA01010000000100000000000000E4
:1056020005010000000406000000000000080A0076
:105612000000000000010102000800080801191A38
:105622001B1C1D1E1F20212294239923C523C62340
:105632009723982301943331F73236F6F56697C6ED
:1056420034351F0200010202020206060609090998
:105652000909090F0F0F0F0F0F1515151819191931
:0A5662001919191919191923240048
:00000001FF
